{
  "transactions": [
    {
      "hash": "0xe214a4146bdcfe61aa8163f9e223395164c14615c8948ee0a9188e543e4ee522",
      "transactionType": "CALL",
      "contractName": "OFTWithFee",
      "contractAddress": "0x770E0D7ad4a83ed2A4900E1cc3c3Cd4B0b1A8BA5",
      "function": "setTrustedRemote(uint16,bytes)",
      "arguments": [
        "10121",
        "0xaa64e3d4a718df31829f3f380e888db51c5e00b4770e0d7ad4a83ed2a4900e1cc3c3cd4b0b1a8ba5"
      ],
      "rpc": "https://polygon-mumbai.g.alchemy.com/v2/4RZ_kvjB-Lb6DQdKMsxA3wpO8c3LQ2wr",
      "transaction": {
        "type": "0x00",
        "from": "0xa3a771a7c4afa7f0a3f88cc6512542241851c926",
        "to": "0x770e0d7ad4a83ed2a4900e1cc3c3cd4b0b1a8ba5",
        "gas": "0x2201b",
        "value": "0x0",
        "data": "0xeb8d72b7000000000000000000000000000000000000000000000000000000000000278900000000000000000000000000000000000000000000000000000000000000400000000000000000000000000000000000000000000000000000000000000028aa64e3d4a718df31829f3f380e888db51c5e00b4770e0d7ad4a83ed2a4900e1cc3c3cd4b0b1a8ba5000000000000000000000000000000000000000000000000",
        "nonce": "0x3"
      },
      "additionalContracts": [],
      "isFixedGasLimit": false
    },
    {
      "hash": "0xa92460770c7fda184164f24e836d3fe479140afeb7e41ceec1234d337de0a496",
      "transactionType": "CALL",
      "contractName": "OFTWithFee",
      "contractAddress": "0x770E0D7ad4a83ed2A4900E1cc3c3Cd4B0b1A8BA5",
      "function": "setTrustedRemote(uint16,bytes)",
      "arguments": [
        "10102",
        "0x277058d78307f11e590d91edff3d4b1c0faa240c770e0d7ad4a83ed2a4900e1cc3c3cd4b0b1a8ba5"
      ],
      "rpc": "https://polygon-mumbai.g.alchemy.com/v2/4RZ_kvjB-Lb6DQdKMsxA3wpO8c3LQ2wr",
      "transaction": {
        "type": "0x00",
        "from": "0xa3a771a7c4afa7f0a3f88cc6512542241851c926",
        "to": "0x770e0d7ad4a83ed2a4900e1cc3c3cd4b0b1a8ba5",
        "gas": "0x201f1",
        "value": "0x0",
        "data": "0xeb8d72b7000000000000000000000000000000000000000000000000000000000000277600000000000000000000000000000000000000000000000000000000000000400000000000000000000000000000000000000000000000000000000000000028277058d78307f11e590d91edff3d4b1c0faa240c770e0d7ad4a83ed2a4900e1cc3c3cd4b0b1a8ba5000000000000000000000000000000000000000000000000",
        "nonce": "0x4"
      },
      "additionalContracts": [],
      "isFixedGasLimit": false
    },
    {
      "hash": "0x64e4448737e37ee619ff3a995b29811e0849738109e3248864ef4e57eff93ad3",
      "transactionType": "CALL",
      "contractName": "OFTWithFee",
      "contractAddress": "0x770E0D7ad4a83ed2A4900E1cc3c3Cd4B0b1A8BA5",
      "function": "setDefaultFeeBp(uint16)",
      "arguments": [
        "2"
      ],
      "rpc": "https://polygon-mumbai.g.alchemy.com/v2/4RZ_kvjB-Lb6DQdKMsxA3wpO8c3LQ2wr",
      "transaction": {
        "type": "0x00",
        "from": "0xa3a771a7c4afa7f0a3f88cc6512542241851c926",
        "to": "0x770e0d7ad4a83ed2a4900e1cc3c3cd4b0b1a8ba5",
        "gas": "0xa2b4",
        "value": "0x0",
        "data": "0x5a359dc50000000000000000000000000000000000000000000000000000000000000002",
        "nonce": "0x5"
      },
      "additionalContracts": [],
      "isFixedGasLimit": false
    }
  ],
  "receipts": [
    {
      "transactionHash": "0xe214a4146bdcfe61aa8163f9e223395164c14615c8948ee0a9188e543e4ee522",
      "transactionIndex": "0x6",
      "blockHash": "0xc5894ebfb1294f45e585cf3e7cadd99c030a516a9d354de6ae37cded7ceeead5",
      "blockNumber": "0x254f886",
      "from": "0xA3A771A7c4AFA7f0a3f88Cc6512542241851C926",
      "to": "0x770E0D7ad4a83ed2A4900E1cc3c3Cd4B0b1A8BA5",
      "cumulativeGasUsed": "0xca1c7",
      "gasUsed": "0x1740a",
      "contractAddress": null,
      "logs": [
        {
          "address": "0x770E0D7ad4a83ed2A4900E1cc3c3Cd4B0b1A8BA5",
          "topics": [
            "0xfa41487ad5d6728f0b19276fa1eddc16558578f5109fc39d2dc33c3230470dab"
          ],
          "data": "0x000000000000000000000000000000000000000000000000000000000000278900000000000000000000000000000000000000000000000000000000000000400000000000000000000000000000000000000000000000000000000000000028aa64e3d4a718df31829f3f380e888db51c5e00b4770e0d7ad4a83ed2a4900e1cc3c3cd4b0b1a8ba5000000000000000000000000000000000000000000000000",
          "blockHash": "0xc5894ebfb1294f45e585cf3e7cadd99c030a516a9d354de6ae37cded7ceeead5",
          "blockNumber": "0x254f886",
          "transactionHash": "0xe214a4146bdcfe61aa8163f9e223395164c14615c8948ee0a9188e543e4ee522",
          "transactionIndex": "0x6",
          "logIndex": "0x15",
          "removed": false
        },
        {
          "address": "0x0000000000000000000000000000000000001010",
          "topics": [
            "0x4dfe1bbbcf077ddc3e01291eea2d5c70c2b422b415d95645b9adcfd678cb1d63",
            "0x0000000000000000000000000000000000000000000000000000000000001010",
            "0x000000000000000000000000a3a771a7c4afa7f0a3f88cc6512542241851c926",
            "0x000000000000000000000000e7f13f6bc1e7f5ca4a6c9a255124ce22c46f8ef0"
          ],
          "data": "0x00000000000000000000000000000000000000000000000000007c1305ef6b90000000000000000000000000000000000000000000000000148ce4eb758d22d50000000000000000000000000000000000000000000000225df2cdeb6b1aadad000000000000000000000000000000000000000000000000148c68d86f9db7450000000000000000000000000000000000000000000000225df349fe710a193d",
          "blockHash": "0xc5894ebfb1294f45e585cf3e7cadd99c030a516a9d354de6ae37cded7ceeead5",
          "blockNumber": "0x254f886",
          "transactionHash": "0xe214a4146bdcfe61aa8163f9e223395164c14615c8948ee0a9188e543e4ee522",
          "transactionIndex": "0x6",
          "logIndex": "0x16",
          "removed": false
        }
      ],
      "status": "0x1",
      "logsBloom": "0x0800000000000000000000000000000000000000000000000000000000000000000000000000000002000000000000000000800000008000000000000000000000000000000000000000000000000080000000000000000000010000000c000000000000000000000200000000000000000000000000000080000000000000000000000200000000000000000000000000000000000000000000000000001000200000000000000000000000000000000000000000000000000000000000004000000000000000000001000000000000000000040000000000100000000000000008000800000000000000000000000000000000000000000000000000100000",
      "type": "0x0",
      "effectiveGasPrice": "0x55602139"
    },
    {
      "transactionHash": "0xa92460770c7fda184164f24e836d3fe479140afeb7e41ceec1234d337de0a496",
      "transactionIndex": "0x9",
      "blockHash": "0xc5894ebfb1294f45e585cf3e7cadd99c030a516a9d354de6ae37cded7ceeead5",
      "blockNumber": "0x254f886",
      "from": "0xA3A771A7c4AFA7f0a3f88Cc6512542241851C926",
      "to": "0x770E0D7ad4a83ed2A4900E1cc3c3Cd4B0b1A8BA5",
      "cumulativeGasUsed": "0xf6294",
      "gasUsed": "0x17416",
      "contractAddress": null,
      "logs": [
        {
          "address": "0x770E0D7ad4a83ed2A4900E1cc3c3Cd4B0b1A8BA5",
          "topics": [
            "0xfa41487ad5d6728f0b19276fa1eddc16558578f5109fc39d2dc33c3230470dab"
          ],
          "data": "0x000000000000000000000000000000000000000000000000000000000000277600000000000000000000000000000000000000000000000000000000000000400000000000000000000000000000000000000000000000000000000000000028277058d78307f11e590d91edff3d4b1c0faa240c770e0d7ad4a83ed2a4900e1cc3c3cd4b0b1a8ba5000000000000000000000000000000000000000000000000",
          "blockHash": "0xc5894ebfb1294f45e585cf3e7cadd99c030a516a9d354de6ae37cded7ceeead5",
          "blockNumber": "0x254f886",
          "transactionHash": "0xa92460770c7fda184164f24e836d3fe479140afeb7e41ceec1234d337de0a496",
          "transactionIndex": "0x9",
          "logIndex": "0x1b",
          "removed": false
        },
        {
          "address": "0x0000000000000000000000000000000000001010",
          "topics": [
            "0x4dfe1bbbcf077ddc3e01291eea2d5c70c2b422b415d95645b9adcfd678cb1d63",
            "0x0000000000000000000000000000000000000000000000000000000000001010",
            "0x000000000000000000000000a3a771a7c4afa7f0a3f88cc6512542241851c926",
            "0x000000000000000000000000e7f13f6bc1e7f5ca4a6c9a255124ce22c46f8ef0"
          ],
          "data": "0x00000000000000000000000000000000000000000000000000007c170670f970000000000000000000000000000000000000000000000000148c68d86f85029b0000000000000000000000000000000000000000000000225df3b8f423c1acd5000000000000000000000000000000000000000000000000148becc16914092b0000000000000000000000000000000000000000000000225df4350b2a32a645",
          "blockHash": "0xc5894ebfb1294f45e585cf3e7cadd99c030a516a9d354de6ae37cded7ceeead5",
          "blockNumber": "0x254f886",
          "transactionHash": "0xa92460770c7fda184164f24e836d3fe479140afeb7e41ceec1234d337de0a496",
          "transactionIndex": "0x9",
          "logIndex": "0x1c",
          "removed": false
        }
      ],
      "status": "0x1",
      "logsBloom": "0x0800000000000000000000000000000000000000000000000000000000000000000000000000000002000000000000000000800000008000000000000000000000000000000000000000000000000080000000000000000000010000000c000000000000000000000200000000000000000000000000000080000000000000000000000200000000000000000000000000000000000000000000000000001000200000000000000000000000000000000000000000000000000000000000004000000000000000000001000000000000000000040000000000100000000000000008000800000000000000000000000000000000000000000000000000100000",
      "type": "0x0",
      "effectiveGasPrice": "0x55602139"
    },
    {
      "transactionHash": "0x64e4448737e37ee619ff3a995b29811e0849738109e3248864ef4e57eff93ad3",
      "transactionIndex": "0xa",
      "blockHash": "0xc5894ebfb1294f45e585cf3e7cadd99c030a516a9d354de6ae37cded7ceeead5",
      "blockNumber": "0x254f886",
      "from": "0xA3A771A7c4AFA7f0a3f88Cc6512542241851C926",
      "to": "0x770E0D7ad4a83ed2A4900E1cc3c3Cd4B0b1A8BA5",
      "cumulativeGasUsed": "0xfd860",
      "gasUsed": "0x75cc",
      "contractAddress": null,
      "logs": [
        {
          "address": "0x770E0D7ad4a83ed2A4900E1cc3c3Cd4B0b1A8BA5",
          "topics": [
            "0xd26030ef4a8c225ee12b646eb4466acb41fb96b6cd4660b22d0ba0124e7bdc74"
          ],
          "data": "0x0000000000000000000000000000000000000000000000000000000000000002",
          "blockHash": "0xc5894ebfb1294f45e585cf3e7cadd99c030a516a9d354de6ae37cded7ceeead5",
          "blockNumber": "0x254f886",
          "transactionHash": "0x64e4448737e37ee619ff3a995b29811e0849738109e3248864ef4e57eff93ad3",
          "transactionIndex": "0xa",
          "logIndex": "0x1d",
          "removed": false
        },
        {
          "address": "0x0000000000000000000000000000000000001010",
          "topics": [
            "0x4dfe1bbbcf077ddc3e01291eea2d5c70c2b422b415d95645b9adcfd678cb1d63",
            "0x0000000000000000000000000000000000000000000000000000000000001010",
            "0x000000000000000000000000a3a771a7c4afa7f0a3f88cc6512542241851c926",
            "0x000000000000000000000000e7f13f6bc1e7f5ca4a6c9a255124ce22c46f8ef0"
          ],
          "data": "0x00000000000000000000000000000000000000000000000000002748f7c1b3e0000000000000000000000000000000000000000000000000148becc168fb53b50000000000000000000000000000000000000000000000225df4350b2a32a645000000000000000000000000000000000000000000000000148bc57871399fd50000000000000000000000000000000000000000000000225df45c5421f45a25",
          "blockHash": "0xc5894ebfb1294f45e585cf3e7cadd99c030a516a9d354de6ae37cded7ceeead5",
          "blockNumber": "0x254f886",
          "transactionHash": "0x64e4448737e37ee619ff3a995b29811e0849738109e3248864ef4e57eff93ad3",
          "transactionIndex": "0xa",
          "logIndex": "0x1e",
          "removed": false
        }
      ],
      "status": "0x1",
      "logsBloom": "0x08000000000000000000000000000000000000000000000000000000000000000000000000000000020000000000000000208000000080000000000000004000000000000000000000000000000000800000000000000000000100000004000000000000000000000200000000000000000000000000000080000000000000000000000000000000000000000000000000000000000000000000000000001000200100000000000000000000000000000000000000000000000000000000004000000000000000000001000000000000000000040000000000100000000000000008000800000000000000000000000000000000000000000000000000100000",
      "type": "0x0",
      "effectiveGasPrice": "0x55602139"
    }
  ],
  "libraries": [],
  "pending": [],
  "path": "/home/sandy/mevETH/broadcast/WireUpOFT.s.sol/80001/run-latest.json",
  "returns": {},
  "timestamp": 1692351156,
  "chain": 80001,
  "multi": false,
  "commit": "76257ec"
}