{
  "transactions": [
    {
      "hash": "0xe214a4146bdcfe61aa8163f9e223395164c14615c8948ee0a9188e543e4ee522",
      "transactionType": "CALL",
      "contractName": "OFTWithFee",
      "contractAddress": "0x770E0D7ad4a83ed2A4900E1cc3c3Cd4B0b1A8BA5",
      "function": "setTrustedRemote(uint16,bytes)",
      "arguments": [
        "10121",
        "0xaa64e3d4a718df31829f3f380e888db51c5e00b4770e0d7ad4a83ed2a4900e1cc3c3cd4b0b1a8ba5"
      ],
      "rpc": "https://polygon-mumbai.g.alchemy.com/v2/4RZ_kvjB-Lb6DQdKMsxA3wpO8c3LQ2wr",
      "transaction": {
        "type": "0x00",
        "from": "0xa3a771a7c4afa7f0a3f88cc6512542241851c926",
        "to": "0x770e0d7ad4a83ed2a4900e1cc3c3cd4b0b1a8ba5",
        "gas": "0x2201b",
        "value": "0x0",
        "data": "0xeb8d72b7000000000000000000000000000000000000000000000000000000000000278900000000000000000000000000000000000000000000000000000000000000400000000000000000000000000000000000000000000000000000000000000028aa64e3d4a718df31829f3f380e888db51c5e00b4770e0d7ad4a83ed2a4900e1cc3c3cd4b0b1a8ba5000000000000000000000000000000000000000000000000",
        "nonce": "0x3"
      },
      "additionalContracts": [],
      "isFixedGasLimit": false
    },
    {
      "hash": "0xa92460770c7fda184164f24e836d3fe479140afeb7e41ceec1234d337de0a496",
      "transactionType": "CALL",
      "contractName": "OFTWithFee",
      "contractAddress": "0x770E0D7ad4a83ed2A4900E1cc3c3Cd4B0b1A8BA5",
      "function": "setTrustedRemote(uint16,bytes)",
      "arguments": [
        "10102",
        "0x277058d78307f11e590d91edff3d4b1c0faa240c770e0d7ad4a83ed2a4900e1cc3c3cd4b0b1a8ba5"
      ],
      "rpc": "https://polygon-mumbai.g.alchemy.com/v2/4RZ_kvjB-Lb6DQdKMsxA3wpO8c3LQ2wr",
      "transaction": {
        "type": "0x00",
        "from": "0xa3a771a7c4afa7f0a3f88cc6512542241851c926",
        "to": "0x770e0d7ad4a83ed2a4900e1cc3c3cd4b0b1a8ba5",
        "gas": "0x201f1",
        "value": "0x0",
        "data": "0xeb8d72b7000000000000000000000000000000000000000000000000000000000000277600000000000000000000000000000000000000000000000000000000000000400000000000000000000000000000000000000000000000000000000000000028277058d78307f11e590d91edff3d4b1c0faa240c770e0d7ad4a83ed2a4900e1cc3c3cd4b0b1a8ba5000000000000000000000000000000000000000000000000",
        "nonce": "0x4"
      },
      "additionalContracts": [],
      "isFixedGasLimit": false
    },
    {
      "hash": "0x64e4448737e37ee619ff3a995b29811e0849738109e3248864ef4e57eff93ad3",
      "transactionType": "CALL",
      "contractName": "OFTWithFee",
      "contractAddress": "0x770E0D7ad4a83ed2A4900E1cc3c3Cd4B0b1A8BA5",
      "function": "setDefaultFeeBp(uint16)",
      "arguments": [
        "2"
      ],
      "rpc": "https://polygon-mumbai.g.alchemy.com/v2/4RZ_kvjB-Lb6DQdKMsxA3wpO8c3LQ2wr",
      "transaction": {
        "type": "0x00",
        "from": "0xa3a771a7c4afa7f0a3f88cc6512542241851c926",
        "to": "0x770e0d7ad4a83ed2a4900e1cc3c3cd4b0b1a8ba5",
        "gas": "0xa2b4",
        "value": "0x0",
        "data": "0x5a359dc50000000000000000000000000000000000000000000000000000000000000002",
        "nonce": "0x5"
      },
      "additionalContracts": [],
      "isFixedGasLimit": false
    }
  ],
  "receipts": [],
  "libraries": [],
  "pending": [
    "0xe214a4146bdcfe61aa8163f9e223395164c14615c8948ee0a9188e543e4ee522",
    "0xa92460770c7fda184164f24e836d3fe479140afeb7e41ceec1234d337de0a496",
    "0x64e4448737e37ee619ff3a995b29811e0849738109e3248864ef4e57eff93ad3"
  ],
  "path": "/home/sandy/mevETH/broadcast/WireUpOFT.s.sol/80001/run-latest.json",
  "returns": {},
  "timestamp": 1692351148,
  "chain": 80001,
  "multi": false,
  "commit": "76257ec"
}